:02000000772A5D
:100006000E3083120313FD00FD0B072800000800C5
:10001600831203139F01C0309F0483161F179F1777
:1000260083122A08F000F00D7010F00D7010F00D1C
:10003600701070089F041F1403201F151F1D25280C
:10004600000021281F101E08F100F00183161E086B
:08005600F0040030F104080081
:0E005E008312031329088A0028088200080074
:10006C0083120313AA010B2070088312A6007108D7
:10007C00A7000130AA000B2070088312A0007108A1
:10008C00A1000230AA000B2070088312A200710894
:10009C00A3000330AA000B2070088312A40071087F
:1000AC00A5000608F83A031D8128A030880082308C
:1000BC009500A0309B000930FB001E30FC00E430A2
:1000CC00FD00FD0B6728FC0B6728FB0B6728000065
:1000DC00F030880082309500A0309B00CB30FB00C4
:1000EC00EC30FC008430FD00FD0B7A28FC0B7A28E8
:1000FC00FB0B7A2800008030F00080302306700261
:10010C00031D8A282208FA3C03189E2880302506F5
:10011C00F00080307002031D9528FA302402031879
:10012C009E2890308800783095008C309B005229A6
:10013C0080302306F00080307002031DA728FA30AF
:10014C0022020318BB288030F00080302506700294
:10015C00031DB2282408FA3C0318BB286030880021
:10016C00783095008C309B0052298030F000803024
:10017C0023067002031DC4282208FA3C031809291F
:10018C008030F000803025067002031DCF28240833
:10019C00FA3C0318092980302706F000803021062C
:1001AC007002031DDB28200826020318ED2860309E
:1001BC008800783095008C309B001A30FC00F830A9
:1001CC00FD00FD0BE728FC0BE72800000829803018
:1001DC002106F000803027067002031DF728260840
:1001EC0020020318082990308800783095008C3054
:1001FC009B001A30FC00F830FD00FD0B0329FC0BB2
:10020C000329000052298030023AF0008030270682
:10021C007002031D13292608583C03181C29A03012
:10022C008800A03095006E309B0052298030023A35
:10023C00F000803021067002031D26292008583C4E
:10024C0003182F29A03088006E309500A0309B0039
:10025C005229A03088007D309500A0309B00803062
:10026C00F000803023067002031D3E292208643CF6
:10027C00031C4C298030F000803025067002031DD1
:10028C0049292408643C031C4C295229A0308800BD
:0C029C007830950078309B003628080070
:1002A8002F208A110A128000840AA80A0319A90AB1
:0802B800F003031D54290800A6
:1002C000831203130608003A031DA429F0308800A6
:1002D00082309500A0309B000230FB000430FC000F
:1002E000BA30FD00FD0B7229FC0B7229FB0B722941
:1002F0000000A030880082309500A0309B000330C1
:10030000FB000830FC007730FD00FD0B8529FC0B5D
:100310008529FB0B8529F030880082309500A030BC
:100320009B000230FB000430FC00BA30FD00FD0BE6
:100330009729FC0B9729FB0B972900000608003A28
:10034000031DA329762A752A0608D83A031DAF296A
:10035000A0308800FF309500FF309B00752A06080A
:10036000983A031DBA29A03088008C309500FA30E5
:100370009B00752A0608C83A031DC529A0308800CD
:10038000FA3095008C309B00752A0608B83A031D98
:10039000D029A03088006E309500FA309B00752A75
:1003A0000608E83A031DDB29A0308800FA309500E2
:1003B0006E309B00752A0608383A031DE529203067
:1003C00088009501FA309B00752A0608E03A031D63
:1003D000EF2980308800FA3095009B01752A0608C5
:1003E000783A031DF929203088009501FF309B00E1
:1003F000752A0608F03A031D032A80308800FF3072
:1004000095009B01752A0608183A031D0E2A6030D4
:1004100088006E309500FF309B00752A0608C03AB0
:10042000031D192A90308800FF3095006E309B0024
:10043000752A0608883A031D242AA0308800FA305D
:100440009500FA309B00752A0608803A031D2E2A73
:1004500080308800FA3095009B01752A0608083A1A
:10046000031D382A203088009501FA309B00752A38
:100470000608603A031D432A60308800FF3095006B
:10048000FF309B00752A0608303A031D4E2A903033
:100490008800FF309500FF309B00752A0608683AF7
:1004A000031D592A60308800FF309500FF309B0003
:1004B000752A0608B03A031D642A90308800FF3080
:1004C0009500FF309B00752A0608F83A031D6F2A35
:1004D00050308800FA309500FA309B00752AA03021
:0E04E000880078309500A0309B00602908004D
:1004EE0083120313A001A101A201A301A401A5017E
:1004FE00A601A701F83083168600831286018316A3
:10050E0087010630831287008316880183128801C3
:10051E0003308316890083128901D1309F00803009
:10052E0083169F000F3085007C30920005308312B9
:10053E0092000C3097003C309D0060213620A42A9A
:02054E00A72ADA
:02400E000A2F77
:00000001FF
